:100000000C942A000C9400000C9400000C94000046
:100010000C9400000C9400000C9400000C94000060
:100020000C9400000C9400000C9400000C94000050
:100030000C9400000C9400000C9400000C94000040
:100040000C9400000C9400000C9400000C94000030
:040050000C9400000C
:10005400BFE5BDBFB4E0BEBF4FEF44BB51E055BBED
:100064000E94370053950C94310048E23FEF2FEF84
:100074002A95F1F73A95D9F74A95C1F70895FFCF34
:000084007C
:00000001FF
