:100000000C942A000C9400000C9400000C94000046
:100010000C9400000C9400000C9400000C94000060
:100020000C9400000C9400000C9400000C94000050
:100030000C9400000C9400000C9400000C94000040
:100040000C9400000C9400000C9400000C94000030
:040050000C9400000C
:10005400BFE5BDBFB4E0BEBF9FEF94BB90E09ABBC9
:1000640099B3917031F490E095BB9FEF95BB0C94DC
:0C007400320090E095BB0C943200FFCFEE
:00000001FF
