:100000000C947D010C9400000C9400000C940000F2
:100010000C9400000C9400000C9400000C94000060
:100020000C9400000C9400000C9400000C94000050
:100030000C9400000C9400000C9400000C94000040
:100040000C9400000C9400000C9400000C94000030
:100050000C9400002F923F92B1E02B1639F4032D3F
:1000600000580150302E222442D006C0032D0054E7
:100070000150302E22243BD03F902F90089527B876
:10008000B6B1B064B6B9B6B1B6FF02C00000FBCFDE
:1000900024B130E005B1102F0027022B132B98015B
:1000A000890108952F923F92322C222420D03F9034
:1000B0002F900895C801BA01AA1BBB1B51E107C0CC
:1000C000AA1FBB1FA617B70710F0A61BB70B881FE8
:1000D000991F5A95A9F78095909508952F923F9270
:1000E000322CB1E02B2E03D03F902F900895CF9368
:1000F000DF93CDB7DEB72297CDBFDEBF219604B325
:10010000088315B3B1B3B6FBB981B0F9B983B2B303
:10011000B6FBB981B1F9B983BFEFB4BBB1B3B06479
:10012000B1BBB1E02B1621F4B2B3B064B2BB03C0D3
:10013000B2B3BF7BB2BB35BA0AE60A95F1F700004D
:100140000000B2B3B068B2BB0AE60A95F1F700004E
:100150000000B2B3BF77B2BB0AE60A95F1F7000020
:100160000000088104BB15BBB981B0FBB1B3B6F97F
:10017000B1BBB981B1FBB2B3B6F9B2BB2196CDBF69
:10018000DEBFDF91CF910895BFE3B0936200B0E08E
:10019000B0936300B7E8B6B908952F923F92B1B318
:1001A000B068B1BB22E010EA03E90A95F1F71A95AD
:1001B000E1F72A95D1F70000B0E33B2E222497DF28
:1001C00018E605EE0A95F1F71A95E1F7B0E33B2E34
:1001D00022248DDF14E00DE10A95F1F71A95E1F77D
:1001E000B0E33B2E222483DFB8E33B2E22247FDFC3
:1001F000B8E03B2E22247BDFB1E03B2E222477DFC8
:1002000018E605EE0A95F1F71A95E1F7B6E03B2EF0
:1002100022246DDFBCE03B2E222469DF3F902F902B
:10022000089518DF10E0E12FF0E0E40DF51D0081E6
:10023000003079F0E12FF0E0E40DF51D00811F930F
:100240002F92202E4BDF2F901F91012F0F5F102F29
:10025000EACF089599DF13DF9801890108952F925D
:100260003F92032D0C5F302EF5DEB4E02B2E1ADF0B
:1002700020E0B0E05B1611F4B0E04B16B1F04AE0BC
:1002800050E0820117DF8D01005D2F932F92202E09
:1002900025DF2F902F914AE050E082010BDF8C0187
:1002A0002801022F0F5F202FE4CF203059F4022FB6
:1002B0000F5F102F1F932F92B0E32B2E0FDF2F9085
:1002C0001F9101C0122F212F04E0011770F0122F8F
:1002D0001F932F92B0E22B2E01DF2F901F9114302D
:1002E00021F0012F0F5F102FF3CF2F92B6E02B2EAE
:1002F000D9DE2F903F902F900895BFE5BDBFB4E0A9
:10030000BEBFCDB7DEB72997CDBFDEBF21962F92F6
:100310003F924F925F9241DF22249CDF0093600066
:1003200010936100169507951695079516950795F4
:1003300000936000109361002801B8E03B2EB1E00B
:100340002B2E8DDFFE01B6E5B193B1E6B193BCE68D
:10035000B193BFE6B193B1E6B193B2E7B193B5E61D
:10036000B193BAE3B193B0E0B1938E012801B1E04B
:100370003B2EB1E02B2E55DFFE01BCE4B193B1E67C
:10038000B193B2E6B193B1E3B193B0E3B193B0E00E
:10039000B1938E012801B6E03B2EB2E02B2E41DF57
:1003A00023E010E70DE50A95F1F71A95E1F72A9594
:1003B000D1F70000B1CFFFCFFFFFFFFFFFFFFFFF2F
:00000001FF
