:100000000C944B000C9400000C9400000C94000025
:100010000C9400000C9400000C9400000C94000060
:100020000C9400000C9400000C9400000C94000050
:100030000C9400000C9400000C9400000C94000040
:100040000C9400000C9400000C9400000C94000030
:100050000C940000B3E3B0936200B0E0B09363008F
:10006000B7E8B6B9089527B8B6B1B064B6B9B6B1B5
:10007000B6FF02C00000FBCF24B130E005B1102F65
:100080000027022B132B980189010895E3DFEBDF92
:10009000980189010895BFE5BDBFB4E0BEBF2F92AE
:1000A000BFE1B4BBB1E02B2EF1DF009360001093F1
:1000B0006100B5E016950795BA95E1F700936000E9
:1000C0001093610005BBEECFFFCFFFFFFFFFFFFFE7
:00000001FF
