:100000000C942A000C9400000C9400000C94000046
:100010000C9400000C9400000C9400000C94000060
:100020000C9400000C9400000C9400000C94000050
:100030000C9400000C9400000C9400000C94000040
:100040000C9400000C9400000C9400000C94000030
:040050000C9400000C
:10005400BFE5BDBFB4E0BEBF2FEF24BB20E225BB8C
:100064000E943E0020E425BB0E943E0020E825BB00
:100074000E943E000C94300048E23FEF2FEF2A9597
:0E008400F1F73A95D9F74A95C1F70895FFCFE5
:00000001FF
