:100000000C94F2000C9400000C9400000C9400007E
:100010000C9400000C9400000C9400000C94000060
:100020000C9400000C9400000C9400000C94000050
:100030000C9400000C9400000C9400000C94000040
:100040000C9400000C9400000C9400000C94000030
:100050000C9400002F923F92B1E02B1639F4032D3F
:1000600000580150302E222413D006C0032D005416
:100070000150302E22240CD03F902F9008952F92C3
:100080003F92322CB1E02B2E03D03F902F90089559
:10009000CF93DF93CDB7DEB72297CDBFDEBF2196DA
:1000A00004B3088315B3B1B3B6FBB981B0F9B98312
:1000B000B2B3B6FBB981B1F9B983BFEFB4BBB1B389
:1000C000B064B1BBB1E02B1621F4B2B3B064B2BBE3
:1000D00003C0B2B3BF7BB2BB35BA0AE60A95F1F7EB
:1000E00000000000B2B3B068B2BB0AE60A95F1F7AF
:1000F00000000000B2B3BF77B2BB0AE60A95F1F781
:1001000000000000088104BB15BBB981B0FBB1B38E
:10011000B6F9B1BBB981B1FBB2B3B6F9B2BB2196A6
:10012000CDBFDEBFDF91CF9108952F923F92B1B343
:10013000B068B1BB22E010EA03E90A95F1F71A951D
:10014000E1F72A95D1F70000B0E33B2E2224A0DF8F
:1001500018E605EE0A95F1F71A95E1F7B0E33B2EA4
:10016000222496DF14E00DE10A95F1F71A95E1F7E4
:10017000B0E33B2E22248CDFB8E33B2E222488DF21
:10018000B8E03B2E222484DFB1E03B2E222480DF26
:1001900018E605EE0A95F1F71A95E1F7B6E03B2E61
:1001A000222476DFBCE03B2E222472DF3F902F908A
:1001B000089550DF10E0E12FF0E0E40DF51D00811F
:1001C000003079F0E12FF0E0E40DF51D00811F9380
:1001D0002F92202E54DF2F901F91012F0F5F102F91
:1001E000EACF0895BFE5BDBFB4E0BEBFCDB7DEB76F
:1001F0002A97CDBFDEBF21962F923F924F925F92FA
:1002000094DFFE01BDE4B193BFE6B193B3E6B193D1
:10021000B1E6B193BEE6B193B5E7B193B0E0B19367
:100220008E012801B3E03B2EB1E02B2EC2DFFE0190
:10023000B3E5B193B5E6B193B2E6B193B1E6B1934C
:10024000B3E7B193B4E7B193B9E6B193B1E6B19333
:10025000BEE6B193B0E0B1938E012801B4E03B2E2D
:10026000B2E02B2EA6DF5F904F903F902F90FBCFF8
:00000001FF
