:100000000C9490010C9400000C9400000C940000DF
:100010000C9400000C9400000C9400000C94000060
:100020000C9400000C9400000C9400000C94000050
:100030000C9400000C9400000C9400000C94000040
:100040000C9400000C9400000C9400000C94000030
:100050000C940000CF93DF93CDB7DEB72297CDBFCE
:10006000DEBF219604B3088315B3B1B3B6FBB981E3
:10007000B0F9B983B2B3B6FBB981B1F9B983BFEFB7
:10008000B4BBB1B3B064B1BBB1E02B1621F4B2B3D1
:10009000B064B2BB03C0B2B3BF7BB2BB35BA0AE631
:1000A0000A95F1F700000000B2B3B068B2BB0AE6EF
:1000B0000A95F1F700000000B2B3BF77B2BB0AE6C1
:1000C0000A95F1F700000000088104BB15BBB98157
:1000D000B0FBB1B3B6F9B1BBB981B1FBB2B3B6F9FC
:1000E000B2BB2196CDBFDEBFDF91CF9108952F9295
:1000F0003F92322C2224AEDF3F902F9008952F9212
:100100003F92B1E02B1639F4032D00580150302EE8
:100110002224A0DF06C0032D00540150302E2224DB
:1001200099DF3F902F9008952F923F92322CB1E0AB
:100130002B2E90DF3F902F900895C801BA01AA1B83
:10014000BB1B51E107C0AA1FBB1FA617B70710F0C2
:10015000A61BB70B881F991F5A95A9F780959095F4
:100160000895BBB1B5FD02C00000FBCFBBB1B6FF27
:1001700003C0BBB1B064BBB92CB80895B1EBB09368
:100180006200B0E0B0936300B7E8B0936000B1E004
:10019000B0936100BAE8B0936600B1E0B093670035
:1001A000BFEFB0936400BFEFB0936500B1B3BE7F03
:1001B000B1BBB1B3B260B1BB0AB108610AB9B6E86C
:1001C000B0BD08952F923F92032D0C5F302E97DF24
:1001D000B4E02B2E8CDF20E0B0E05B1611F4B0E031
:1001E0004B16B1F04AE050E08201A7DF8D01005DBF
:1001F0002F932F92202E98DF2F902F914AE050E0DE
:1002000082019BDF8C012801022F0F5F202FE4CF9A
:10021000203059F4022F0F5F102F1F932F92B0E35D
:100220002B2E82DF2F901F9101C0122F212F04E06F
:10023000011770F0122F1F932F92B0E22B2E74DF54
:100240002F901F91143021F0012F0F5F102FF3CF4B
:100250002F92B6E02B2E4BDF2F903F902F900895DA
:100260002F923F92B1B3B068B1BB22E010EA03E92C
:100270000A95F1F71A95E1F72A95D1F70000B0E356
:100280003B2E2224E7DE18E605EE0A95F1F71A95D3
:10029000E1F7B0E33B2E2224DDDE14E00DE10A9508
:1002A000F1F71A95E1F7B0E33B2E2224D3DEB8E351
:1002B0003B2E2224CFDEB8E03B2E2224CBDEB1E061
:1002C0003B2E2224C7DE18E605EE0A95F1F71A95B3
:1002D000E1F7B6E03B2E2224BDDEBCE03B2E22241B
:1002E000B9DE3F902F9008959101F901008100300F
:1002F00069F0F90100813F922F92202E32DF2F907A
:100300003F9089010F5F1F4F9801EFCF08951CB1F7
:10031000012F08950BB0112707FC1395012F0895A5
:10032000BFE5BDBFB4E0BEBFCDB7DEB72497CDBF3C
:10033000DEBF21962F923F924F925F92B7E6B9B9F6
:10034000B0E0B0BD1BDFB2E3B883B5E3B983B5E37A
:10035000BA83B0E0BB838E011801C6DF81DFDADF2C
:100360000023C9F0D4DF00936800B0E0B0936900C7
:100370004090680050906900B1E03B2EB1E02B2E18
:1003800021DF23E010E70DE50A95F1F71A95E1F773
:100390002A95D1F70000E3CFFFCFFFFFFFFFFFFF5C
:00000001FF
