:100000000C942A000C9400000C9400000C94000046
:100010000C9400000C9400000C9400000C94000060
:100020000C9400000C9400000C9400000C94000050
:100030000C9400000C9400000C9400000C94000040
:100040000C9400000C9400000C9400000C94000030
:100050000C940000BFE5BDBFB4E0BEBFBFEFB4BBB2
:10006000B5B3B260B5BBB5B3B061B5BBB5B3B0683D
:10007000B5BBFFCFFFFFFFFFFFFFFFFFFFFFFFFF4E
:00000001FF
