:100000000C9412010C9400000C9400000C9400005D
:100010000C9400000C9400000C9400000C94000060
:100020000C9400000C9400000C9400000C94000050
:100030000C9400000C9400000C9400000C94000040
:100040000C9400000C9400000C9400000C94000030
:100050000C940000CF93DF93CDB7DEB72297CDBFCE
:10006000DEBF219604B3088315B3B1B3B6FBB981E3
:10007000B0F9B983B2B3B6FBB981B1F9B983BFEFB7
:10008000B4BBB1B3B064B1BBB1E02B1621F4B2B3D1
:10009000B064B2BB03C0B2B3BF7BB2BB35BA0AE631
:1000A0000A95F1F700000000B2B3B068B2BB0AE6EF
:1000B0000A95F1F700000000B2B3BF77B2BB0AE6C1
:1000C0000A95F1F700000000088104BB15BBB98157
:1000D000B0FBB1B3B6F9B1BBB981B1FBB2B3B6F9FC
:1000E000B2BB2196CDBFDEBFDF91CF9108952F9295
:1000F0003F92322CB1E02B2EADDF3F902F90089530
:100100002F923F92B1E02B1639F4032D0058015085
:10011000302E22249FDF06C0032D00540150302EC4
:10012000222498DF3F902F9008952F923F92322CF7
:10013000222490DF3F902F900895E2DF10E0E12F1E
:10014000F0E0E40DF51D0081003079F0E12FF0E0E2
:10015000E40DF51D00811F932F92202EC8DF2F90F4
:100160001F91012F0F5F102FEACF08952F92B0E457
:100170002B2EDBDF20E00AEA12E0E22FF0E0E00FB6
:10018000F11F04912F93202EB2DF2F91273021F001
:10019000022F0F5F202FEFCF2F9008952F923F92C5
:1001A000B1B3B068B1BB22E010EA03E90A95F1F7F8
:1001B0001A95E1F72A95D1F70000B0E33B2E2224EF
:1001C00049DF18E605EE0A95F1F71A95E1F7B0E375
:1001D0003B2E22243FDF14E00DE10A95F1F71A953A
:1001E000E1F7B0E33B2E222435DFB8E33B2E222497
:1001F00031DFB8E03B2E22242DDFB1E03B2E22245C
:1002000029DF18E605EE0A95F1F71A95E1F7B6E051
:100210003B2E22241FDFBCE03B2E22241BDF3F901D
:100220002F900895BFE5BDBFB4E0BEBFCDB7DEB728
:100230006197CDBFDEBF21962F923F924F925F9282
:1002400095DFACDFFE01B3E4B193B8E6B193B1E65C
:10025000B193B2E7B193B1E6B193B3E6B193B4E72A
:10026000B193B5E6B193B2E7B193B5E7B193BCE60C
:10027000B193B0E2B193BDE6B193B5E6B193B5E702
:10028000B193BAE3B193B0E0B1938E012801B1E02C
:100290003B2EB1E02B2E51DFB4E03B2EB2E02B2EF3
:1002A0002FDF222424DFCECFFFCF1F11001A1E0123
:1002B0001F01FFFFFFFFFFFFFFFFFFFFFFFFFFFF2C
:00000001FF
