:100000000C944B000C9400000C9400000C94000025
:100010000C9400000C9400000C9400000C94000060
:100020000C9400000C9400000C9400000C94000050
:100030000C9400000C9400000C9400000C94000040
:100040000C9400000C9400000C9400000C94000030
:100050000C940000B3E3B0936200B0E0B09363008F
:10006000B7E8B6B9089527B8B6B1B064B6B9B6B1B5
:10007000B6FF02C00000FBCF24B130E005B1102F65
:100080000027022B132B980189010895E3DFEBDF92
:10009000980189010895BFE5BDBFB4E0BEBF2F92AE
:1000A000B0E0BABBBFE0B1BBB1E02B2EEFDF0093F5
:1000B00060001093610020E032E0021713078CF516
:1000C000B9B3B0FD17C0B2B3B061B2BB15E20CE575
:1000D0000A95F1F71A95E1F70000B2B3BF7EB2BB03
:1000E00022E01CE706E30A95F1F71A95E1F72A9555
:1000F000D1F716C0B2B3B061B2BB1AE20EE80A95EE
:10010000F1F71A95E1F70000B2B3BF7EB2BB22E06F
:1001100017E704E00A95F1F71A95E1F72A95D1F768
:1001200030C0B9B3B0FD17C0B2B3B061B2BB10E21A
:100130000AE20A95F1F71A95E1F70000B2B3BF7E23
:10014000B2BB22E011E808E60A95F1F71A95E1F74B
:100150002A95D1F716C0B2B3B061B2BB1AE20EE86D
:100160000A95F1F71A95E1F70000B2B3BF7EB2BB72
:1001700022E017E704E00A95F1F71A95E1F72A95CE
:10018000D1F792CFFFCFFFFFFFFFFFFFFFFFFFFF82
:00000001FF
