:100000000C94AE010C9400000C9400000C940000C1
:100010000C9400000C9400000C9400000C94000060
:100020000C9400000C9400000C9400000C94000050
:100030000C9400000C9400000C9400000C94000040
:100040000C9400000C9400000C9400000C94000030
:100050000C9400002F923F92322C22243DD03F90EE
:100060002F9008952F923F92322CB1E02B2E34D056
:100070003F902F90089527B8B6B1B064B6B9B6B125
:10008000B6FF02C00000FBCF24B130E005B1102F55
:100090000027022B132B980189010895BBE3B0932D
:1000A0006200B0E0B0936300B7E8B6B908952F924C
:1000B0003F92B1E02B1639F4032D00580150302E39
:1000C00022240AD006C0032D00540150302E2224D1
:1000D00003D03F902F900895CF93DF93CDB7DEB735
:1000E0002297CDBFDEBF219604B3088315B3B1B309
:1000F000B6FBB981B0F9B983B2B3B6FBB981B1F936
:10010000B983BFEFB4BBB1B3B064B1BBB1E02B16E0
:1001100021F4B2B3B064B2BB03C0B2B3BF7BB2BB15
:1001200035BA0AE60A95F1F700000000B2B3B068EC
:10013000B2BB0AE60A95F1F700000000B2B3BF7740
:10014000B2BB0AE60A95F1F700000000088104BB83
:1001500015BBB981B0FBB1B3B6F9B1BBB981B1FB85
:10016000B2B3B6F9B2BB2196CDBFDEBFDF91CF915E
:100170000895C801BA01AA1BBB1B51E107C0AA1F01
:10018000BB1FA617B70710F0A61BB70B881F991F38
:100190005A95A9F7809590950895B1EFB0936000B6
:1001A000B0E0B0936100BFEFB0936A00BFEFB093CF
:1001B0006B00BFEFB0936800BFEFB0936900BFEF73
:1001C000B0936600BFEFB0936700B1B3BE7FB1BB21
:1001D000B1B3B260B1BB0AB108610AB9B6E8B0BD4B
:1001E0000895BBB1B5FD02C00000FBCFBBB1B6FFA7
:1001F00003C0BBB1B064BBB92CB808952F923F9235
:10020000032D0C5F302E53DFB4E02B2E23DF20E0D4
:10021000B0E05B1611F4B0E04B16B1F04AE050E0EC
:100220008201A7DF8D01005D2F932F92202E1ADF10
:100230002F902F914AE050E082019BDF8C01280132
:10024000022F0F5F202FE4CF203059F4022F0F5FD1
:10025000102F1F932F92B0E32B2E04DF2F901F91AE
:1002600001C0122F212F04E0011770F0122F1F93ED
:100270002F92B0E22B2EF6DE2F901F91143021F03A
:10028000012F0F5F102FF3CF2F92B6E02B2EE2DE5F
:100290002F903F902F9008952F923F92B1B3B06866
:1002A000B1BB22E010EA03E90A95F1F71A95E1F7EC
:1002B0002A95D1F70000B0E33B2E22240DDF18E68B
:1002C00005EE0A95F1F71A95E1F7B0E33B2E2224EB
:1002D00003DF14E00DE10A95F1F71A95E1F7B0E3B9
:1002E0003B2E2224F9DEB8E33B2E2224F5DEB8E0D3
:1002F0003B2E2224F1DEB1E03B2E2224EDDE18E677
:1003000005EE0A95F1F71A95E1F7B6E03B2E2224A7
:10031000E3DEBCE03B2E2224DFDE3F902F900895E9
:10032000C6DE10E0E12FF0E0E40DF51D00810030A5
:1003300079F0E12FF0E0E40DF51D00811F932F927D
:10034000202E90DE2F901F91012F0F5F102FEACFEC
:100350000895A4DE90DE980189010895BFE5BDBF30
:10036000B4E0BEBFCDB7DEB72E97CDBFDEBF2196BE
:100370002F923F924F925F92B7E6B9B9B0E0B0BD0D
:100380000CDF8ADFFE01B0E5B193BFE6B193B4E7BD
:10039000B193B5E6B193BEE6B193B4E7B193B9E6D4
:1003A000B193BFE6B193BDE6B193B5E6B193B4E7BF
:1003B000B193B2E7B193B5E7B193B0E0B1938E01D9
:1003C0002801B1E03B2EB1E02B2EAADFB1E02B2EAD
:1003D000C0DF169507951695079500936400109356
:1003E00065002801B1E03B2EB2E02B2E07DF209004
:1003F0006400F7DE29E01EE105EE0A95F1F71A9593
:10040000E1F72A95D1F70000209164003091650052
:100410000AEA10E002171307F0F4FE01B1E4B19309
:10042000B4E5B193B5E4B193BEE4B193B4E5B1934F
:10043000B9E4B193B5E4B193B1E2B193B0E0B19353
:100440008E012801B7E03B2EB2E02B2E69DFB1E42C
:100450002B2EC7DE1EC0FE01B0E2B193B0E2B19315
:10046000B0E2B193B0E2B193B0E2B193B0E2B19334
:10047000B0E2B193B0E2B193B0E2B193B0E2B19324
:10048000B0E0B1938E012801B7E03B2EB2E02B2EF5
:1004900047DF9CCFFFCFFFFFFFFFFFFFFFFFFFFF07
:00000001FF
