:100000000C9453010C9400000C9400000C9400001C
:100010000C9400000C9400000C9400000C94000060
:100020000C9400000C9400000C9400000C94000050
:100030000C9400000C9400000C9400000C94000040
:100040000C9400000C9400000C9400000C94000030
:100050000C9400002F923F92B1E02B1639F4032D3F
:1000600000580150302E22243BD006C0032D0054EE
:100070000150302E222434D03F902F90089527B87D
:10008000B6B1B064B6B9B6B1B6FF02C00000FBCFDE
:1000900024B130E005B1102F0027022B132B98015B
:1000A00089010895992779E004C0991F941708F0F1
:1000B000941B001F7A95C9F7009508952F923F92DF
:1000C000322CB1E02B2E0CD03F902F900895BFE33F
:1000D000B0936200B0E0B0936300B7E8B6B908959A
:1000E000CF93DF93CDB7DEB72297CDBFDEBF21968A
:1000F00004B3088315B3B1B3B6FBB981B0F9B983C2
:10010000B2B3B6FBB981B1F9B983BFEFB4BBB1B338
:10011000B064B1BBB1E02B1621F4B2B3B064B2BB92
:1001200003C0B2B3BF7BB2BB35BA0AE60A95F1F79A
:1001300000000000B2B3B068B2BB0AE60A95F1F75E
:1001400000000000B2B3BF77B2BB0AE60A95F1F730
:1001500000000000088104BB15BBB981B0FBB1B33E
:10016000B6F9B1BBB981B1FBB2B3B6F9B2BB219656
:10017000CDBFDEBFDF91CF9108952F926BDF44E6B4
:10018000042D90DF005D202E99DF4AE0042D8ADFE8
:100190004AE088DF092F005D202E90DF4AE0042D21
:1001A00081DF092F005D202E89DF2F90089520E048
:1001B00030E0F10101911191021713078CF015E164
:1001C00007EC0A95F1F71A95E1F7F1010191119108
:1001D0002017310729F089010F5F1F4F9801E9CFE0
:1001E00008952F923F92B1B3B068B1BB22E010EAFC
:1001F00003E90A95F1F71A95E1F72A95D1F700007E
:10020000B0E33B2E22246CDF18E605EE0A95F1F7E9
:100210001A95E1F7B0E33B2E222462DF14E00DE1F2
:100220000A95F1F71A95E1F7B0E33B2E222458DF47
:10023000B8E33B2E222454DFB8E03B2E222450DFCB
:10024000B1E03B2E22244CDF18E605EE0A95F1F7CB
:100250001A95E1F7B6E03B2E222442DFBCE03B2EAC
:1002600022243EDF3F902F90089531DF08DF980170
:1002700089010895EFDE10E0E12FF0E0E40DF51DB7
:100280000081003079F0E12FF0E0E40DF51D0081F0
:100290001F932F92202E12DF2F901F91012F0F5F9F
:1002A000102FEACF0895BFE5BDBFB4E0BEBFCDB704
:1002B000DEB76197CDBFDEBF21962F923F924F925E
:1002C0005F92BAE0B7BBB0E3B1BBBFEFB4BB89DFAD
:1002D000B0E0B0936000B1E02B2EC7DF0093610067
:1002E000069506950695069500936100FE01BDE40E
:1002F000B193BFE6B193B4E7B193BFE6B193B2E770
:10030000B193B0E2B193B0E5B193B1E6B193B3E785
:10031000B193B0E2B193B3E6B193B5E7B193B0E274
:10032000B193B0E5B193B1E6B193B3E7B193B0E067
:10033000B1938E012801B1E03B2EB1E02B2E9ADF64
:1003400040906000B1E03B2EB2E02B2E16DF009112
:100350006100053018F4B5E0B093610000916100D0
:100360000F3308F058C0B0B3B6FF29C0B2E0B8BB35
:10037000B1E0B5BBB1E62B2EB0E03B2E18DFB0E10B
:10038000B8BBB2E0B5BBB1E62B2EB0E03B2E0FDF21
:10039000B8E0B8BBB4E0B5BBB1E62B2EB0E03B2E65
:1003A00006DFB0E2B8BBB8E0B5BBB1E62B2EB0E0DB
:1003B0003B2EFDDE009160000F5F00936000B0B344
:1003C000B6FD29C0B0E2B8BBB8E0B5BBB1E62B2E94
:1003D000B0E03B2EECDEB8E0B8BBB4E0B5BBB1E6B4
:1003E0002B2EB0E03B2EE3DEB0E1B8BBB2E0B5BBF4
:1003F000B1E62B2EB0E03B2EDADEB2E0B8BBB1E0C6
:10040000B5BBB1E62B2EB0E03B2ED1DE00916000F3
:100410000150009360005FCFFFCF02100820FFFF64
:00000001FF
