:100000000C9465000C9400000C9400000C9400000B
:100010000C9400000C9400000C9400000C94000060
:100020000C9400000C9400000C9400000C94000050
:100030000C9400000C9400000C9400000C94000040
:100040000C9400000C9400000C9400000C94000030
:100050000C940000B3E3B0936200B0E0B09363008F
:10006000B7E8B6B9089527B8B6B1B064B6B9B6B1B5
:10007000B6FF02C00000FBCF24B130E005B1102F65
:100080000027022B132B98018901089520E030E00E
:10009000F10101911191021713078CF015E107ECA2
:1000A0000A95F1F71A95E1F7F101019111912017E5
:1000B000310729F089010F5F1F4F9801E9CF08959B
:1000C000C9DFD1DF980189010895BFE5BDBFB4E064
:1000D000BEBF2F923F92BFE0B1BBB1E02B2EF0DF4D
:1000E0000093600010936100B5E098013595279565
:1000F000BA95E1F7209360003093610002E010E0D0
:100100002017310734F4B2E0B0936000B0E0B09350
:10011000610020916000309161000FE110E0201734
:1001200031070CF03EC0B9B3B0FF1CC0B1E0B2BBA8
:10013000B0E62B2EB0E03B2EA9DFB2E0B2BBB0E6BA
:100140002B2EB0E03B2EA2DFB4E0B2BBB0E62B2EEC
:10015000B0E03B2E9BDFB8E0B2BBB0E62B2EB0E0A8
:100160003B2E94DFB9B3B0FD1CC0B8E0B2BBB0E623
:100170002B2EB0E03B2E8ADFB4E0B2BBB0E62B2ED4
:10018000B0E03B2E83DFB2E0B2BBB0E62B2EB0E096
:100190003B2E7CDFB1E0B2BBB0E62B2EB0E03B2EB5
:1001A00075DF9BCFFFCF01020408FFFFFFFFFFFFBA
:00000001FF
